{"abi":[{"type":"constructor","inputs":[],"stateMutability":"nonpayable"},{"type":"function","name":"registerUser","inputs":[{"name":"id","type":"uint256","internalType":"uint256"},{"name":"age","type":"uint256","internalType":"uint256"},{"name":"isActive","type":"bool","internalType":"bool"},{"name":"walletAddress","type":"address","internalType":"address"}],"outputs":[],"stateMutability":"nonpayable"},{"type":"function","name":"users","inputs":[{"name":"","type":"uint256","internalType":"uint256"}],"outputs":[{"name":"id","type":"uint256","internalType":"uint256"},{"name":"age","type":"uint256","internalType":"uint256"},{"name":"isActive","type":"bool","internalType":"bool"},{"name":"walletAddress","type":"address","internalType":"address"}],"stateMutability":"view"}],"bytecode":{"object":"0x608060405234801561000f575f5ffd5b5061002760016019600161dead61004260201b60201c565b61003d6002601e5f61dead61004260201b60201c565b610382565b5f8411610084576040517f08c379a000000000000000000000000000000000000000000000000000000000815260040161007b9061026e565b60405180910390fd5b5f83116100c6576040517f08c379a00000000000000000000000000000000000000000000000000000000081526004016100bd906102d6565b60405180910390fd5b5f73ffffffffffffffffffffffffffffffffffffffff168173ffffffffffffffffffffffffffffffffffffffff1603610134576040517f08c379a000000000000000000000000000000000000000000000000000000000815260040161012b90610364565b60405180910390fd5b5f604051806080016040528086815260200185815260200184151581526020018373ffffffffffffffffffffffffffffffffffffffff16815250908060018154018082558091505060019003905f5260205f2090600302015f909190919091505f820151815f0155602082015181600101556040820151816002015f6101000a81548160ff02191690831515021790555060608201518160020160016101000a81548173ffffffffffffffffffffffffffffffffffffffff021916908373ffffffffffffffffffffffffffffffffffffffff160217905550505050505050565b5f82825260208201905092915050565b7f4944206d7573742062652067726561746572207468616e2030000000000000005f82015250565b5f610258601983610214565b915061026382610224565b602082019050919050565b5f6020820190508181035f8301526102858161024c565b9050919050565b7f416765206d7573742062652067726561746572207468616e20300000000000005f82015250565b5f6102c0601a83610214565b91506102cb8261028c565b602082019050919050565b5f6020820190508181035f8301526102ed816102b4565b9050919050565b7f57616c6c657420616464726573732063616e6e6f74206265207a65726f2061645f8201527f6472657373000000000000000000000000000000000000000000000000000000602082015250565b5f61034e602583610214565b9150610359826102f4565b604082019050919050565b5f6020820190508181035f83015261037b81610342565b9050919050565b6106288061038f5f395ff3fe608060405234801561000f575f5ffd5b5060043610610034575f3560e01c80630b45fead14610038578063365b98b214610054575b5f5ffd5b610052600480360381019061004d9190610385565b610087565b005b61006e600480360381019061006991906103e9565b610259565b60405161007e9493929190610441565b60405180910390f35b5f84116100c9576040517f08c379a00000000000000000000000000000000000000000000000000000000081526004016100c0906104de565b60405180910390fd5b5f831161010b576040517f08c379a000000000000000000000000000000000000000000000000000000000815260040161010290610546565b60405180910390fd5b5f73ffffffffffffffffffffffffffffffffffffffff168173ffffffffffffffffffffffffffffffffffffffff1603610179576040517f08c379a0000000000000000000000000000000000000000000000000000000008152600401610170906105d4565b60405180910390fd5b5f604051806080016040528086815260200185815260200184151581526020018373ffffffffffffffffffffffffffffffffffffffff16815250908060018154018082558091505060019003905f5260205f2090600302015f909190919091505f820151815f0155602082015181600101556040820151816002015f6101000a81548160ff02191690831515021790555060608201518160020160016101000a81548173ffffffffffffffffffffffffffffffffffffffff021916908373ffffffffffffffffffffffffffffffffffffffff160217905550505050505050565b5f8181548110610267575f80fd5b905f5260205f2090600302015f91509050805f015490806001015490806002015f9054906101000a900460ff16908060020160019054906101000a900473ffffffffffffffffffffffffffffffffffffffff16905084565b5f5ffd5b5f819050919050565b6102d5816102c3565b81146102df575f5ffd5b50565b5f813590506102f0816102cc565b92915050565b5f8115159050919050565b61030a816102f6565b8114610314575f5ffd5b50565b5f8135905061032581610301565b92915050565b5f73ffffffffffffffffffffffffffffffffffffffff82169050919050565b5f6103548261032b565b9050919050565b6103648161034a565b811461036e575f5ffd5b50565b5f8135905061037f8161035b565b92915050565b5f5f5f5f6080858703121561039d5761039c6102bf565b5b5f6103aa878288016102e2565b94505060206103bb878288016102e2565b93505060406103cc87828801610317565b92505060606103dd87828801610371565b91505092959194509250565b5f602082840312156103fe576103fd6102bf565b5b5f61040b848285016102e2565b91505092915050565b61041d816102c3565b82525050565b61042c816102f6565b82525050565b61043b8161034a565b82525050565b5f6080820190506104545f830187610414565b6104616020830186610414565b61046e6040830185610423565b61047b6060830184610432565b95945050505050565b5f82825260208201905092915050565b7f4944206d7573742062652067726561746572207468616e2030000000000000005f82015250565b5f6104c8601983610484565b91506104d382610494565b602082019050919050565b5f6020820190508181035f8301526104f5816104bc565b9050919050565b7f416765206d7573742062652067726561746572207468616e20300000000000005f82015250565b5f610530601a83610484565b915061053b826104fc565b602082019050919050565b5f6020820190508181035f83015261055d81610524565b9050919050565b7f57616c6c657420616464726573732063616e6e6f74206265207a65726f2061645f8201527f6472657373000000000000000000000000000000000000000000000000000000602082015250565b5f6105be602583610484565b91506105c982610564565b604082019050919050565b5f6020820190508181035f8301526105eb816105b2565b905091905056fea2646970667358221220a2e2733f3b7e5656f7c528987f3e1d5b0a14e5b4865633cc00428ab26051aa9064736f6c63430008230033","linkReferences":{}},"methodIdentifiers":{"registerUser(uint256,uint256,bool,address)":"0b45fead","users(uint256)":"365b98b2"},"id":21}